# XPlane 11 DataRefs

Xplane can send DataRef frames with information about the current values in the simulator. The frames are send as UDP packets and with a simple program we can listen for these frames.

The format is really simple and consists of 509 bytes of data

^ Byte[]      ^ Content       ^ Description          ^
| 0-4    | DREF+     | Header indicating this is a DataRef        |
| 5-9    | float     | 4 bytes of the floating point number  |
| 10-509    | string     | A string with the name of the DataRef |


When dumping the data with tcpdump the structure can be explored. UDP frames are really simple, the first 28 bytes are the source Port, destination Port, the length and the checksum. The rest of the data is the DataRef itself.

```
20:34:32.894216 IP leon-desktop.home.49001 > leon-desktop.home.49002: UDP, length 509
	0x0000:  4500 0219 0722 4000 4011 acfd c0a8 01b2  E...."@.@.......
	0x0010:  c0a8 01b2 bf69 bf6a 0205 86cb 4452 4546  .....i.j....DREF
	0x0020:  2b84 2a5c 4573 696d 2f63 6f63 6b70 6974  +.*\Esim/cockpit
	0x0030:  322f 6761 7567 6573 2f69 6e64 6963 6174  2/gauges/indicat
	0x0040:  6f72 732f 616c 7469 7475 6465 5f66 745f  ors/altitude_ft_
	0x0050:  7069 6c6f 7400 0000 0000 0000 0000 0000  pilot...........
	0x0060:  0000 0000 0000 0000 0000 0000 0000 0000  ................
	0x0070:  0000 0000 0000 0000 0000 0000 0000 0000  ................
	0x0080:  0000 0000 0000 0000 0000 0000 0000 0000  ................
	0x0090:  0000 0000 0000 0000 0000 0000 0000 0000  ................
	0x00a0:  0000 0000 0000 0000 0000 0000 0000 0000  ................
	0x00b0:  0000 0000 0000 0000 0000 0000 0000 0000  ................
	0x00c0:  0000 0000 0000 0000 0000 0000 0000 0000  ................
	0x00d0:  0000 0000 0000 0000 0000 0000 0000 0000  ................
	0x00e0:  0000 0000 0000 0000 0000 0000 0000 0000  ................
	0x00f0:  0000 0000 0000 0000 0000 0000 0000 0000  ................
	0x0100:  0000 0000 0000 0000 0000 0000 0000 0000  ................
	0x0110:  0000 0000 0000 0000 0000 0000 0000 0000  ................
	0x0120:  0000 0000 0000 0000 0000 0000 0000 0000  ................
	0x0130:  0000 0000 0000 0000 0000 0000 0000 0000  ................
	0x0140:  0000 0000 0000 0000 0000 0000 0000 0000  ................
	0x0150:  0000 0000 0000 0000 0000 0000 0000 0000  ................
	0x0160:  0000 0000 0000 0000 0000 0000 0000 0000  ................
	0x0170:  0000 0000 0000 0000 0000 0000 0000 0000  ................
	0x0180:  0000 0000 0000 0000 0000 0000 0000 0000  ................
	0x0190:  0000 0000 0000 0000 0000 0000 0000 0000  ................
	0x01a0:  0000 0000 0000 0000 0000 0000 0000 0000  ................
	0x01b0:  0000 0000 0000 0000 0000 0000 0000 0000  ................
	0x01c0:  0000 0000 0000 0000 0000 0000 0000 0000  ................
	0x01d0:  0000 0000 0000 0000 0000 0000 0000 0000  ................
	0x01e0:  0000 0000 0000 0000 0000 0000 0000 0000  ................
	0x01f0:  0000 0000 0000 0000 0000 0000 0000 0000  ................
	0x0200:  0000 0000 0000 0000 0000 0000 0000 0000  ................
	0x0210:  0000 0000 0000 0000 00                   .........
```

```python
#
# < little-endian
# 5 chars
# f float
# 91 chars
unpacked = struct.unpack("<5sf91s", data)

# Strip the zeros from the end
name = unpacked[2].decode('ascii').rstrip('\x00')
```
